{
  "contracts/Lottery.sol": {
    "Lottery": {
      "abi": [
        {
          "inputs": [
            {
              "internalType": "uint256",
              "name": "entryFee",
              "type": "uint256"
            },
            {
              "internalType": "address",
              "name": "vrfCoordinatorV2",
              "type": "address"
            },
            {
              "internalType": "bytes32",
              "name": "keyHash",
              "type": "bytes32"
            },
            {
              "internalType": "uint64",
              "name": "subscriptionID",
              "type": "uint64"
            },
            {
              "internalType": "uint32",
              "name": "callbackGasLimit",
              "type": "uint32"
            },
            {
              "internalType": "uint256",
              "name": "interval",
              "type": "uint256"
            }
          ],
          "stateMutability": "nonpayable",
          "type": "constructor"
        },
        {
          "inputs": [],
          "name": "Lottery_NotEnoughEthEntered",
          "type": "error"
        },
        {
          "inputs": [],
          "name": "Lottery_TransferedFailed",
          "type": "error"
        },
        {
          "inputs": [
            {
              "internalType": "address",
              "name": "have",
              "type": "address"
            },
            {
              "internalType": "address",
              "name": "want",
              "type": "address"
            }
          ],
          "name": "OnlyCoordinatorCanFulfill",
          "type": "error"
        },
        {
          "inputs": [],
          "name": "Raffle__NotOpen",
          "type": "error"
        },
        {
          "anonymous": false,
          "inputs": [
            {
              "indexed": true,
              "internalType": "address",
              "name": "player",
              "type": "address"
            }
          ],
          "name": "lotteryEnter",
          "type": "event"
        },
        {
          "anonymous": false,
          "inputs": [
            {
              "indexed": true,
              "internalType": "uint256",
              "name": "requestId",
              "type": "uint256"
            }
          ],
          "name": "requestRandomWinner",
          "type": "event"
        },
        {
          "anonymous": false,
          "inputs": [
            {
              "indexed": true,
              "internalType": "address",
              "name": "winner",
              "type": "address"
            }
          ],
          "name": "winnerPicked",
          "type": "event"
        },
        {
          "inputs": [
            {
              "internalType": "bytes",
              "name": "",
              "type": "bytes"
            }
          ],
          "name": "checkUpkeep",
          "outputs": [
            {
              "internalType": "bool",
              "name": "upkeepNeeded",
              "type": "bool"
            },
            {
              "internalType": "bytes",
              "name": "",
              "type": "bytes"
            }
          ],
          "stateMutability": "view",
          "type": "function"
        },
        {
          "inputs": [],
          "name": "enterLottery",
          "outputs": [],
          "stateMutability": "payable",
          "type": "function"
        },
        {
          "inputs": [],
          "name": "getEntryFee",
          "outputs": [
            {
              "internalType": "uint256",
              "name": "",
              "type": "uint256"
            }
          ],
          "stateMutability": "view",
          "type": "function"
        },
        {
          "inputs": [
            {
              "internalType": "uint256",
              "name": "index",
              "type": "uint256"
            }
          ],
          "name": "getPlayers",
          "outputs": [
            {
              "internalType": "address",
              "name": "",
              "type": "address"
            }
          ],
          "stateMutability": "view",
          "type": "function"
        },
        {
          "inputs": [],
          "name": "getRecentWinner",
          "outputs": [
            {
              "internalType": "address",
              "name": "",
              "type": "address"
            }
          ],
          "stateMutability": "view",
          "type": "function"
        },
        {
          "inputs": [
            {
              "internalType": "bytes",
              "name": "",
              "type": "bytes"
            }
          ],
          "name": "performUpkeep",
          "outputs": [],
          "stateMutability": "nonpayable",
          "type": "function"
        },
        {
          "inputs": [
            {
              "internalType": "uint256",
              "name": "requestId",
              "type": "uint256"
            },
            {
              "internalType": "uint256[]",
              "name": "randomWords",
              "type": "uint256[]"
            }
          ],
          "name": "rawFulfillRandomWords",
          "outputs": [],
          "stateMutability": "nonpayable",
          "type": "function"
        }
      ],
      "devdoc": {
        "kind": "dev",
        "methods": {
          "checkUpkeep(bytes)": {
            "details": "this is the function chainlink keeper nodes call they look for 'upkeepNeeded\" to return true. The following should be returned true in order to return true  1. Our time interval should have passed 2. The lottery should have at least 1 player, and have some ETH  3. Our subscription is funded with LINK 4. Lottery should be in a open state"
          }
        },
        "version": 1
      },
      "evm": {
        "bytecode": {
          "linkReferences": {},
          "object": "6101606040523480156200001257600080fd5b5060405162001443380380620014438339818101604052810190620000389190620002a0565b848073ffffffffffffffffffffffffffffffffffffffff1660808173ffffffffffffffffffffffffffffffffffffffff1660601b81525050508560a081815250508473ffffffffffffffffffffffffffffffffffffffff1660c08173ffffffffffffffffffffffffffffffffffffffff1660601b815250508360e081815250508267ffffffffffffffff166101008167ffffffffffffffff1660c01b815250508163ffffffff166101208163ffffffff1660e01b815250506000600360006101000a81548160ff021916908360018111156200011957620001186200033c565b5b0217905550426002819055508061014081815250505050505050506200036b565b600080fd5b6000819050919050565b62000154816200013f565b81146200016057600080fd5b50565b600081519050620001748162000149565b92915050565b600073ffffffffffffffffffffffffffffffffffffffff82169050919050565b6000620001a7826200017a565b9050919050565b620001b9816200019a565b8114620001c557600080fd5b50565b600081519050620001d981620001ae565b92915050565b6000819050919050565b620001f481620001df565b81146200020057600080fd5b50565b6000815190506200021481620001e9565b92915050565b600067ffffffffffffffff82169050919050565b62000239816200021a565b81146200024557600080fd5b50565b60008151905062000259816200022e565b92915050565b600063ffffffff82169050919050565b6200027a816200025f565b81146200028657600080fd5b50565b6000815190506200029a816200026f565b92915050565b60008060008060008060c08789031215620002c057620002bf6200013a565b5b6000620002d089828a0162000163565b9650506020620002e389828a01620001c8565b9550506040620002f689828a0162000203565b94505060606200030989828a0162000248565b93505060806200031c89828a0162000289565b92505060a06200032f89828a0162000163565b9150509295509295509295565b7f4e487b7100000000000000000000000000000000000000000000000000000000600052602160045260246000fd5b60805160601c60a05160c05160601c60e0516101005160c01c6101205160e01c61014051611063620003e0600039600061048c01526000610311015260006102ee015260006102cd015260006102910152600081816104fd015261066e0152600081816101a401526101f801526110636000f3fe6080604052600436106100705760003560e01c8063473f1ddc1161004e578063473f1ddc146101045780636e04ff0d1461012f578063c1af57851461016d578063e586a4f01461017757610070565b80631fe543e3146100755780634585e33b1461009e578063460e2049146100c7575b600080fd5b34801561008157600080fd5b5061009c60048036038101906100979190610b06565b6101a2565b005b3480156100aa57600080fd5b506100c560048036038101906100c09190610bbd565b610262565b005b3480156100d357600080fd5b506100ee60048036038101906100e99190610c0a565b6103d8565b6040516100fb9190610c78565b60405180910390f35b34801561011057600080fd5b5061011961041f565b6040516101269190610c78565b60405180910390f35b34801561013b57600080fd5b5061015660048036038101906101519190610bbd565b610449565b604051610164929190610d36565b60405180910390f35b6101756104fb565b005b34801561018357600080fd5b5061018c61066a565b6040516101999190610d75565b60405180910390f35b7f000000000000000000000000000000000000000000000000000000000000000073ffffffffffffffffffffffffffffffffffffffff163373ffffffffffffffffffffffffffffffffffffffff161461025457337f00000000000000000000000000000000000000000000000000000000000000006040517f1cf993f400000000000000000000000000000000000000000000000000000000815260040161024b929190610d90565b60405180910390fd5b61025e8282610692565b5050565b6001600360006101000a81548160ff0219169083600181111561028857610287610db9565b5b021790555060007f000000000000000000000000000000000000000000000000000000000000000073ffffffffffffffffffffffffffffffffffffffff16635d3b1d307f00000000000000000000000000000000000000000000000000000000000000007f000000000000000000000000000000000000000000000000000000000000000060037f000000000000000000000000000000000000000000000000000000000000000060016040518663ffffffff1660e01b8152600401610352959493929190610e60565b602060405180830381600087803b15801561036c57600080fd5b505af1158015610380573d6000803e3d6000fd5b505050506040513d601f19601f820116820180604052508101906103a49190610ec8565b9050807f5e42a34530a308d44a84f0c245afbe71f18da82562b8d6ce22888f2ba8d3a28e60405160405180910390a2505050565b60008082815481106103ed576103ec610ef5565b5b9060005260206000200160009054906101000a900473ffffffffffffffffffffffffffffffffffffffff169050919050565b6000600160009054906101000a900473ffffffffffffffffffffffffffffffffffffffff16905090565b600060606000600360009054906101000a900460ff16600181111561047157610470610db9565b5b6000600181111561048557610484610db9565b5b14905060007f0000000000000000000000000000000000000000000000000000000000000000600254426104b99190610f53565b1190506000806000805490501190506000804711905060008480156104db5750835b80156104e45750825b80156104ed5750815b905050505050509250929050565b7f0000000000000000000000000000000000000000000000000000000000000000341015610555576040517f1044bcb000000000000000000000000000000000000000000000000000000000815260040160405180910390fd5b6000600181111561056957610568610db9565b5b600360009054906101000a900460ff16600181111561058b5761058a610db9565b5b146105c2576040517f1425571c00000000000000000000000000000000000000000000000000000000815260040160405180910390fd5b6000339080600181540180825580915050600190039060005260206000200160009091909190916101000a81548173ffffffffffffffffffffffffffffffffffffffff021916908373ffffffffffffffffffffffffffffffffffffffff1602179055503373ffffffffffffffffffffffffffffffffffffffff167f6ba87006f2c53f2d227d45b3400034f16dbf4f6842816c4880d30170f3a6a16060405160405180910390a2565b60007f0000000000000000000000000000000000000000000000000000000000000000905090565b60008080549050826000815181106106ad576106ac610ef5565b5b60200260200101516106bf9190610fb6565b905060008082815481106106d6576106d5610ef5565b5b9060005260206000200160009054906101000a900473ffffffffffffffffffffffffffffffffffffffff16905080600160006101000a81548173ffffffffffffffffffffffffffffffffffffffff021916908373ffffffffffffffffffffffffffffffffffffffff1602179055506000600360006101000a81548160ff0219169083600181111561076a57610769610db9565b5b0217905550600067ffffffffffffffff81111561078a576107896109c3565b5b6040519080825280602002602001820160405280156107b85781602001602082028036833780820191505090505b50600090805190602001906107ce9291906108bc565b5060008173ffffffffffffffffffffffffffffffffffffffff16476040516107f590611018565b60006040518083038185875af1925050503d8060008114610832576040519150601f19603f3d011682016040523d82523d6000602084013e610837565b606091505b5050905080610872576040517f98adbeb800000000000000000000000000000000000000000000000000000000815260040160405180910390fd5b8173ffffffffffffffffffffffffffffffffffffffff167f794919b0f484b8e90b1b817ac7f880f846fbd8a9813dee2a378e820db094e3d160405160405180910390a25050505050565b828054828255906000526020600020908101928215610935579160200282015b828111156109345782518260006101000a81548173ffffffffffffffffffffffffffffffffffffffff021916908373ffffffffffffffffffffffffffffffffffffffff160217905550916020019190600101906108dc565b5b5090506109429190610946565b5090565b5b8082111561095f576000816000905550600101610947565b5090565b6000604051905090565b600080fd5b600080fd5b6000819050919050565b61098a81610977565b811461099557600080fd5b50565b6000813590506109a781610981565b92915050565b600080fd5b6000601f19601f8301169050919050565b7f4e487b7100000000000000000000000000000000000000000000000000000000600052604160045260246000fd5b6109fb826109b2565b810181811067ffffffffffffffff82111715610a1a57610a196109c3565b5b80604052505050565b6000610a2d610963565b9050610a3982826109f2565b919050565b600067ffffffffffffffff821115610a5957610a586109c3565b5b602082029050602081019050919050565b600080fd5b6000610a82610a7d84610a3e565b610a23565b90508083825260208201905060208402830185811115610aa557610aa4610a6a565b5b835b81811015610ace5780610aba8882610998565b845260208401935050602081019050610aa7565b5050509392505050565b600082601f830112610aed57610aec6109ad565b5b8135610afd848260208601610a6f565b91505092915050565b60008060408385031215610b1d57610b1c61096d565b5b6000610b2b85828601610998565b925050602083013567ffffffffffffffff811115610b4c57610b4b610972565b5b610b5885828601610ad8565b9150509250929050565b600080fd5b60008083601f840112610b7d57610b7c6109ad565b5b8235905067ffffffffffffffff811115610b9a57610b99610b62565b5b602083019150836001820283011115610bb657610bb5610a6a565b5b9250929050565b60008060208385031215610bd457610bd361096d565b5b600083013567ffffffffffffffff811115610bf257610bf1610972565b5b610bfe85828601610b67565b92509250509250929050565b600060208284031215610c2057610c1f61096d565b5b6000610c2e84828501610998565b91505092915050565b600073ffffffffffffffffffffffffffffffffffffffff82169050919050565b6000610c6282610c37565b9050919050565b610c7281610c57565b82525050565b6000602082019050610c8d6000830184610c69565b92915050565b60008115159050919050565b610ca881610c93565b82525050565b600081519050919050565b600082825260208201905092915050565b60005b83811015610ce8578082015181840152602081019050610ccd565b83811115610cf7576000848401525b50505050565b6000610d0882610cae565b610d128185610cb9565b9350610d22818560208601610cca565b610d2b816109b2565b840191505092915050565b6000604082019050610d4b6000830185610c9f565b8181036020830152610d5d8184610cfd565b90509392505050565b610d6f81610977565b82525050565b6000602082019050610d8a6000830184610d66565b92915050565b6000604082019050610da56000830185610c69565b610db26020830184610c69565b9392505050565b7f4e487b7100000000000000000000000000000000000000000000000000000000600052602160045260246000fd5b6000819050919050565b610dfb81610de8565b82525050565b600067ffffffffffffffff82169050919050565b610e1e81610e01565b82525050565b600061ffff82169050919050565b610e3b81610e24565b82525050565b600063ffffffff82169050919050565b610e5a81610e41565b82525050565b600060a082019050610e756000830188610df2565b610e826020830187610e15565b610e8f6040830186610e32565b610e9c6060830185610e51565b610ea96080830184610e51565b9695505050505050565b600081519050610ec281610981565b92915050565b600060208284031215610ede57610edd61096d565b5b6000610eec84828501610eb3565b91505092915050565b7f4e487b7100000000000000000000000000000000000000000000000000000000600052603260045260246000fd5b7f4e487b7100000000000000000000000000000000000000000000000000000000600052601160045260246000fd5b6000610f5e82610977565b9150610f6983610977565b925082821015610f7c57610f7b610f24565b5b828203905092915050565b7f4e487b7100000000000000000000000000000000000000000000000000000000600052601260045260246000fd5b6000610fc182610977565b9150610fcc83610977565b925082610fdc57610fdb610f87565b5b828206905092915050565b600081905092915050565b50565b6000611002600083610fe7565b915061100d82610ff2565b600082019050919050565b600061102382610ff5565b915081905091905056fea26469706673582212208a4cec538c4e53693aec75f0e11b04360061327b93a655c49740f93920a0407764736f6c63430008080033",
          "opcodes": "PUSH2 0x160 PUSH1 0x40 MSTORE CALLVALUE DUP1 ISZERO PUSH3 0x12 JUMPI PUSH1 0x0 DUP1 REVERT JUMPDEST POP PUSH1 0x40 MLOAD PUSH3 0x1443 CODESIZE SUB DUP1 PUSH3 0x1443 DUP4 CODECOPY DUP2 DUP2 ADD PUSH1 0x40 MSTORE DUP2 ADD SWAP1 PUSH3 0x38 SWAP2 SWAP1 PUSH3 0x2A0 JUMP JUMPDEST DUP5 DUP1 PUSH20 0xFFFFFFFFFFFFFFFFFFFFFFFFFFFFFFFFFFFFFFFF AND PUSH1 0x80 DUP2 PUSH20 0xFFFFFFFFFFFFFFFFFFFFFFFFFFFFFFFFFFFFFFFF AND PUSH1 0x60 SHL DUP2 MSTORE POP POP POP DUP6 PUSH1 0xA0 DUP2 DUP2 MSTORE POP POP DUP5 PUSH20 0xFFFFFFFFFFFFFFFFFFFFFFFFFFFFFFFFFFFFFFFF AND PUSH1 0xC0 DUP2 PUSH20 0xFFFFFFFFFFFFFFFFFFFFFFFFFFFFFFFFFFFFFFFF AND PUSH1 0x60 SHL DUP2 MSTORE POP POP DUP4 PUSH1 0xE0 DUP2 DUP2 MSTORE POP POP DUP3 PUSH8 0xFFFFFFFFFFFFFFFF AND PUSH2 0x100 DUP2 PUSH8 0xFFFFFFFFFFFFFFFF AND PUSH1 0xC0 SHL DUP2 MSTORE POP POP DUP2 PUSH4 0xFFFFFFFF AND PUSH2 0x120 DUP2 PUSH4 0xFFFFFFFF AND PUSH1 0xE0 SHL DUP2 MSTORE POP POP PUSH1 0x0 PUSH1 0x3 PUSH1 0x0 PUSH2 0x100 EXP DUP2 SLOAD DUP2 PUSH1 0xFF MUL NOT AND SWAP1 DUP4 PUSH1 0x1 DUP2 GT ISZERO PUSH3 0x119 JUMPI PUSH3 0x118 PUSH3 0x33C JUMP JUMPDEST JUMPDEST MUL OR SWAP1 SSTORE POP TIMESTAMP PUSH1 0x2 DUP2 SWAP1 SSTORE POP DUP1 PUSH2 0x140 DUP2 DUP2 MSTORE POP POP POP POP POP POP POP POP PUSH3 0x36B JUMP JUMPDEST PUSH1 0x0 DUP1 REVERT JUMPDEST PUSH1 0x0 DUP2 SWAP1 POP SWAP2 SWAP1 POP JUMP JUMPDEST PUSH3 0x154 DUP2 PUSH3 0x13F JUMP JUMPDEST DUP2 EQ PUSH3 0x160 JUMPI PUSH1 0x0 DUP1 REVERT JUMPDEST POP JUMP JUMPDEST PUSH1 0x0 DUP2 MLOAD SWAP1 POP PUSH3 0x174 DUP2 PUSH3 0x149 JUMP JUMPDEST SWAP3 SWAP2 POP POP JUMP JUMPDEST PUSH1 0x0 PUSH20 0xFFFFFFFFFFFFFFFFFFFFFFFFFFFFFFFFFFFFFFFF DUP3 AND SWAP1 POP SWAP2 SWAP1 POP JUMP JUMPDEST PUSH1 0x0 PUSH3 0x1A7 DUP3 PUSH3 0x17A JUMP JUMPDEST SWAP1 POP SWAP2 SWAP1 POP JUMP JUMPDEST PUSH3 0x1B9 DUP2 PUSH3 0x19A JUMP JUMPDEST DUP2 EQ PUSH3 0x1C5 JUMPI PUSH1 0x0 DUP1 REVERT JUMPDEST POP JUMP JUMPDEST PUSH1 0x0 DUP2 MLOAD SWAP1 POP PUSH3 0x1D9 DUP2 PUSH3 0x1AE JUMP JUMPDEST SWAP3 SWAP2 POP POP JUMP JUMPDEST PUSH1 0x0 DUP2 SWAP1 POP SWAP2 SWAP1 POP JUMP JUMPDEST PUSH3 0x1F4 DUP2 PUSH3 0x1DF JUMP JUMPDEST DUP2 EQ PUSH3 0x200 JUMPI PUSH1 0x0 DUP1 REVERT JUMPDEST POP JUMP JUMPDEST PUSH1 0x0 DUP2 MLOAD SWAP1 POP PUSH3 0x214 DUP2 PUSH3 0x1E9 JUMP JUMPDEST SWAP3 SWAP2 POP POP JUMP JUMPDEST PUSH1 0x0 PUSH8 0xFFFFFFFFFFFFFFFF DUP3 AND SWAP1 POP SWAP2 SWAP1 POP JUMP JUMPDEST PUSH3 0x239 DUP2 PUSH3 0x21A JUMP JUMPDEST DUP2 EQ PUSH3 0x245 JUMPI PUSH1 0x0 DUP1 REVERT JUMPDEST POP JUMP JUMPDEST PUSH1 0x0 DUP2 MLOAD SWAP1 POP PUSH3 0x259 DUP2 PUSH3 0x22E JUMP JUMPDEST SWAP3 SWAP2 POP POP JUMP JUMPDEST PUSH1 0x0 PUSH4 0xFFFFFFFF DUP3 AND SWAP1 POP SWAP2 SWAP1 POP JUMP JUMPDEST PUSH3 0x27A DUP2 PUSH3 0x25F JUMP JUMPDEST DUP2 EQ PUSH3 0x286 JUMPI PUSH1 0x0 DUP1 REVERT JUMPDEST POP JUMP JUMPDEST PUSH1 0x0 DUP2 MLOAD SWAP1 POP PUSH3 0x29A DUP2 PUSH3 0x26F JUMP JUMPDEST SWAP3 SWAP2 POP POP JUMP JUMPDEST PUSH1 0x0 DUP1 PUSH1 0x0 DUP1 PUSH1 0x0 DUP1 PUSH1 0xC0 DUP8 DUP10 SUB SLT ISZERO PUSH3 0x2C0 JUMPI PUSH3 0x2BF PUSH3 0x13A JUMP JUMPDEST JUMPDEST PUSH1 0x0 PUSH3 0x2D0 DUP10 DUP3 DUP11 ADD PUSH3 0x163 JUMP JUMPDEST SWAP7 POP POP PUSH1 0x20 PUSH3 0x2E3 DUP10 DUP3 DUP11 ADD PUSH3 0x1C8 JUMP JUMPDEST SWAP6 POP POP PUSH1 0x40 PUSH3 0x2F6 DUP10 DUP3 DUP11 ADD PUSH3 0x203 JUMP JUMPDEST SWAP5 POP POP PUSH1 0x60 PUSH3 0x309 DUP10 DUP3 DUP11 ADD PUSH3 0x248 JUMP JUMPDEST SWAP4 POP POP PUSH1 0x80 PUSH3 0x31C DUP10 DUP3 DUP11 ADD PUSH3 0x289 JUMP JUMPDEST SWAP3 POP POP PUSH1 0xA0 PUSH3 0x32F DUP10 DUP3 DUP11 ADD PUSH3 0x163 JUMP JUMPDEST SWAP2 POP POP SWAP3 SWAP6 POP SWAP3 SWAP6 POP SWAP3 SWAP6 JUMP JUMPDEST PUSH32 0x4E487B7100000000000000000000000000000000000000000000000000000000 PUSH1 0x0 MSTORE PUSH1 0x21 PUSH1 0x4 MSTORE PUSH1 0x24 PUSH1 0x0 REVERT JUMPDEST PUSH1 0x80 MLOAD PUSH1 0x60 SHR PUSH1 0xA0 MLOAD PUSH1 0xC0 MLOAD PUSH1 0x60 SHR PUSH1 0xE0 MLOAD PUSH2 0x100 MLOAD PUSH1 0xC0 SHR PUSH2 0x120 MLOAD PUSH1 0xE0 SHR PUSH2 0x140 MLOAD PUSH2 0x1063 PUSH3 0x3E0 PUSH1 0x0 CODECOPY PUSH1 0x0 PUSH2 0x48C ADD MSTORE PUSH1 0x0 PUSH2 0x311 ADD MSTORE PUSH1 0x0 PUSH2 0x2EE ADD MSTORE PUSH1 0x0 PUSH2 0x2CD ADD MSTORE PUSH1 0x0 PUSH2 0x291 ADD MSTORE PUSH1 0x0 DUP2 DUP2 PUSH2 0x4FD ADD MSTORE PUSH2 0x66E ADD MSTORE PUSH1 0x0 DUP2 DUP2 PUSH2 0x1A4 ADD MSTORE PUSH2 0x1F8 ADD MSTORE PUSH2 0x1063 PUSH1 0x0 RETURN INVALID PUSH1 0x80 PUSH1 0x40 MSTORE PUSH1 0x4 CALLDATASIZE LT PUSH2 0x70 JUMPI PUSH1 0x0 CALLDATALOAD PUSH1 0xE0 SHR DUP1 PUSH4 0x473F1DDC GT PUSH2 0x4E JUMPI DUP1 PUSH4 0x473F1DDC EQ PUSH2 0x104 JUMPI DUP1 PUSH4 0x6E04FF0D EQ PUSH2 0x12F JUMPI DUP1 PUSH4 0xC1AF5785 EQ PUSH2 0x16D JUMPI DUP1 PUSH4 0xE586A4F0 EQ PUSH2 0x177 JUMPI PUSH2 0x70 JUMP JUMPDEST DUP1 PUSH4 0x1FE543E3 EQ PUSH2 0x75 JUMPI DUP1 PUSH4 0x4585E33B EQ PUSH2 0x9E JUMPI DUP1 PUSH4 0x460E2049 EQ PUSH2 0xC7 JUMPI JUMPDEST PUSH1 0x0 DUP1 REVERT JUMPDEST CALLVALUE DUP1 ISZERO PUSH2 0x81 JUMPI PUSH1 0x0 DUP1 REVERT JUMPDEST POP PUSH2 0x9C PUSH1 0x4 DUP1 CALLDATASIZE SUB DUP2 ADD SWAP1 PUSH2 0x97 SWAP2 SWAP1 PUSH2 0xB06 JUMP JUMPDEST PUSH2 0x1A2 JUMP JUMPDEST STOP JUMPDEST CALLVALUE DUP1 ISZERO PUSH2 0xAA JUMPI PUSH1 0x0 DUP1 REVERT JUMPDEST POP PUSH2 0xC5 PUSH1 0x4 DUP1 CALLDATASIZE SUB DUP2 ADD SWAP1 PUSH2 0xC0 SWAP2 SWAP1 PUSH2 0xBBD JUMP JUMPDEST PUSH2 0x262 JUMP JUMPDEST STOP JUMPDEST CALLVALUE DUP1 ISZERO PUSH2 0xD3 JUMPI PUSH1 0x0 DUP1 REVERT JUMPDEST POP PUSH2 0xEE PUSH1 0x4 DUP1 CALLDATASIZE SUB DUP2 ADD SWAP1 PUSH2 0xE9 SWAP2 SWAP1 PUSH2 0xC0A JUMP JUMPDEST PUSH2 0x3D8 JUMP JUMPDEST PUSH1 0x40 MLOAD PUSH2 0xFB SWAP2 SWAP1 PUSH2 0xC78 JUMP JUMPDEST PUSH1 0x40 MLOAD DUP1 SWAP2 SUB SWAP1 RETURN JUMPDEST CALLVALUE DUP1 ISZERO PUSH2 0x110 JUMPI PUSH1 0x0 DUP1 REVERT JUMPDEST POP PUSH2 0x119 PUSH2 0x41F JUMP JUMPDEST PUSH1 0x40 MLOAD PUSH2 0x126 SWAP2 SWAP1 PUSH2 0xC78 JUMP JUMPDEST PUSH1 0x40 MLOAD DUP1 SWAP2 SUB SWAP1 RETURN JUMPDEST CALLVALUE DUP1 ISZERO PUSH2 0x13B JUMPI PUSH1 0x0 DUP1 REVERT JUMPDEST POP PUSH2 0x156 PUSH1 0x4 DUP1 CALLDATASIZE SUB DUP2 ADD SWAP1 PUSH2 0x151 SWAP2 SWAP1 PUSH2 0xBBD JUMP JUMPDEST PUSH2 0x449 JUMP JUMPDEST PUSH1 0x40 MLOAD PUSH2 0x164 SWAP3 SWAP2 SWAP1 PUSH2 0xD36 JUMP JUMPDEST PUSH1 0x40 MLOAD DUP1 SWAP2 SUB SWAP1 RETURN JUMPDEST PUSH2 0x175 PUSH2 0x4FB JUMP JUMPDEST STOP JUMPDEST CALLVALUE DUP1 ISZERO PUSH2 0x183 JUMPI PUSH1 0x0 DUP1 REVERT JUMPDEST POP PUSH2 0x18C PUSH2 0x66A JUMP JUMPDEST PUSH1 0x40 MLOAD PUSH2 0x199 SWAP2 SWAP1 PUSH2 0xD75 JUMP JUMPDEST PUSH1 0x40 MLOAD DUP1 SWAP2 SUB SWAP1 RETURN JUMPDEST PUSH32 0x0 PUSH20 0xFFFFFFFFFFFFFFFFFFFFFFFFFFFFFFFFFFFFFFFF AND CALLER PUSH20 0xFFFFFFFFFFFFFFFFFFFFFFFFFFFFFFFFFFFFFFFF AND EQ PUSH2 0x254 JUMPI CALLER PUSH32 0x0 PUSH1 0x40 MLOAD PUSH32 0x1CF993F400000000000000000000000000000000000000000000000000000000 DUP2 MSTORE PUSH1 0x4 ADD PUSH2 0x24B SWAP3 SWAP2 SWAP1 PUSH2 0xD90 JUMP JUMPDEST PUSH1 0x40 MLOAD DUP1 SWAP2 SUB SWAP1 REVERT JUMPDEST PUSH2 0x25E DUP3 DUP3 PUSH2 0x692 JUMP JUMPDEST POP POP JUMP JUMPDEST PUSH1 0x1 PUSH1 0x3 PUSH1 0x0 PUSH2 0x100 EXP DUP2 SLOAD DUP2 PUSH1 0xFF MUL NOT AND SWAP1 DUP4 PUSH1 0x1 DUP2 GT ISZERO PUSH2 0x288 JUMPI PUSH2 0x287 PUSH2 0xDB9 JUMP JUMPDEST JUMPDEST MUL OR SWAP1 SSTORE POP PUSH1 0x0 PUSH32 0x0 PUSH20 0xFFFFFFFFFFFFFFFFFFFFFFFFFFFFFFFFFFFFFFFF AND PUSH4 0x5D3B1D30 PUSH32 0x0 PUSH32 0x0 PUSH1 0x3 PUSH32 0x0 PUSH1 0x1 PUSH1 0x40 MLOAD DUP7 PUSH4 0xFFFFFFFF AND PUSH1 0xE0 SHL DUP2 MSTORE PUSH1 0x4 ADD PUSH2 0x352 SWAP6 SWAP5 SWAP4 SWAP3 SWAP2 SWAP1 PUSH2 0xE60 JUMP JUMPDEST PUSH1 0x20 PUSH1 0x40 MLOAD DUP1 DUP4 SUB DUP2 PUSH1 0x0 DUP8 DUP1 EXTCODESIZE ISZERO DUP1 ISZERO PUSH2 0x36C JUMPI PUSH1 0x0 DUP1 REVERT JUMPDEST POP GAS CALL ISZERO DUP1 ISZERO PUSH2 0x380 JUMPI RETURNDATASIZE PUSH1 0x0 DUP1 RETURNDATACOPY RETURNDATASIZE PUSH1 0x0 REVERT JUMPDEST POP POP POP POP PUSH1 0x40 MLOAD RETURNDATASIZE PUSH1 0x1F NOT PUSH1 0x1F DUP3 ADD AND DUP3 ADD DUP1 PUSH1 0x40 MSTORE POP DUP2 ADD SWAP1 PUSH2 0x3A4 SWAP2 SWAP1 PUSH2 0xEC8 JUMP JUMPDEST SWAP1 POP DUP1 PUSH32 0x5E42A34530A308D44A84F0C245AFBE71F18DA82562B8D6CE22888F2BA8D3A28E PUSH1 0x40 MLOAD PUSH1 0x40 MLOAD DUP1 SWAP2 SUB SWAP1 LOG2 POP POP POP JUMP JUMPDEST PUSH1 0x0 DUP1 DUP3 DUP2 SLOAD DUP2 LT PUSH2 0x3ED JUMPI PUSH2 0x3EC PUSH2 0xEF5 JUMP JUMPDEST JUMPDEST SWAP1 PUSH1 0x0 MSTORE PUSH1 0x20 PUSH1 0x0 KECCAK256 ADD PUSH1 0x0 SWAP1 SLOAD SWAP1 PUSH2 0x100 EXP SWAP1 DIV PUSH20 0xFFFFFFFFFFFFFFFFFFFFFFFFFFFFFFFFFFFFFFFF AND SWAP1 POP SWAP2 SWAP1 POP JUMP JUMPDEST PUSH1 0x0 PUSH1 0x1 PUSH1 0x0 SWAP1 SLOAD SWAP1 PUSH2 0x100 EXP SWAP1 DIV PUSH20 0xFFFFFFFFFFFFFFFFFFFFFFFFFFFFFFFFFFFFFFFF AND SWAP1 POP SWAP1 JUMP JUMPDEST PUSH1 0x0 PUSH1 0x60 PUSH1 0x0 PUSH1 0x3 PUSH1 0x0 SWAP1 SLOAD SWAP1 PUSH2 0x100 EXP SWAP1 DIV PUSH1 0xFF AND PUSH1 0x1 DUP2 GT ISZERO PUSH2 0x471 JUMPI PUSH2 0x470 PUSH2 0xDB9 JUMP JUMPDEST JUMPDEST PUSH1 0x0 PUSH1 0x1 DUP2 GT ISZERO PUSH2 0x485 JUMPI PUSH2 0x484 PUSH2 0xDB9 JUMP JUMPDEST JUMPDEST EQ SWAP1 POP PUSH1 0x0 PUSH32 0x0 PUSH1 0x2 SLOAD TIMESTAMP PUSH2 0x4B9 SWAP2 SWAP1 PUSH2 0xF53 JUMP JUMPDEST GT SWAP1 POP PUSH1 0x0 DUP1 PUSH1 0x0 DUP1 SLOAD SWAP1 POP GT SWAP1 POP PUSH1 0x0 DUP1 SELFBALANCE GT SWAP1 POP PUSH1 0x0 DUP5 DUP1 ISZERO PUSH2 0x4DB JUMPI POP DUP4 JUMPDEST DUP1 ISZERO PUSH2 0x4E4 JUMPI POP DUP3 JUMPDEST DUP1 ISZERO PUSH2 0x4ED JUMPI POP DUP2 JUMPDEST SWAP1 POP POP POP POP POP POP SWAP3 POP SWAP3 SWAP1 POP JUMP JUMPDEST PUSH32 0x0 CALLVALUE LT ISZERO PUSH2 0x555 JUMPI PUSH1 0x40 MLOAD PUSH32 0x1044BCB000000000000000000000000000000000000000000000000000000000 DUP2 MSTORE PUSH1 0x4 ADD PUSH1 0x40 MLOAD DUP1 SWAP2 SUB SWAP1 REVERT JUMPDEST PUSH1 0x0 PUSH1 0x1 DUP2 GT ISZERO PUSH2 0x569 JUMPI PUSH2 0x568 PUSH2 0xDB9 JUMP JUMPDEST JUMPDEST PUSH1 0x3 PUSH1 0x0 SWAP1 SLOAD SWAP1 PUSH2 0x100 EXP SWAP1 DIV PUSH1 0xFF AND PUSH1 0x1 DUP2 GT ISZERO PUSH2 0x58B JUMPI PUSH2 0x58A PUSH2 0xDB9 JUMP JUMPDEST JUMPDEST EQ PUSH2 0x5C2 JUMPI PUSH1 0x40 MLOAD PUSH32 0x1425571C00000000000000000000000000000000000000000000000000000000 DUP2 MSTORE PUSH1 0x4 ADD PUSH1 0x40 MLOAD DUP1 SWAP2 SUB SWAP1 REVERT JUMPDEST PUSH1 0x0 CALLER SWAP1 DUP1 PUSH1 0x1 DUP2 SLOAD ADD DUP1 DUP3 SSTORE DUP1 SWAP2 POP POP PUSH1 0x1 SWAP1 SUB SWAP1 PUSH1 0x0 MSTORE PUSH1 0x20 PUSH1 0x0 KECCAK256 ADD PUSH1 0x0 SWAP1 SWAP2 SWAP1 SWAP2 SWAP1 SWAP2 PUSH2 0x100 EXP DUP2 SLOAD DUP2 PUSH20 0xFFFFFFFFFFFFFFFFFFFFFFFFFFFFFFFFFFFFFFFF MUL NOT AND SWAP1 DUP4 PUSH20 0xFFFFFFFFFFFFFFFFFFFFFFFFFFFFFFFFFFFFFFFF AND MUL OR SWAP1 SSTORE POP CALLER PUSH20 0xFFFFFFFFFFFFFFFFFFFFFFFFFFFFFFFFFFFFFFFF AND PUSH32 0x6BA87006F2C53F2D227D45B3400034F16DBF4F6842816C4880D30170F3A6A160 PUSH1 0x40 MLOAD PUSH1 0x40 MLOAD DUP1 SWAP2 SUB SWAP1 LOG2 JUMP JUMPDEST PUSH1 0x0 PUSH32 0x0 SWAP1 POP SWAP1 JUMP JUMPDEST PUSH1 0x0 DUP1 DUP1 SLOAD SWAP1 POP DUP3 PUSH1 0x0 DUP2 MLOAD DUP2 LT PUSH2 0x6AD JUMPI PUSH2 0x6AC PUSH2 0xEF5 JUMP JUMPDEST JUMPDEST PUSH1 0x20 MUL PUSH1 0x20 ADD ADD MLOAD PUSH2 0x6BF SWAP2 SWAP1 PUSH2 0xFB6 JUMP JUMPDEST SWAP1 POP PUSH1 0x0 DUP1 DUP3 DUP2 SLOAD DUP2 LT PUSH2 0x6D6 JUMPI PUSH2 0x6D5 PUSH2 0xEF5 JUMP JUMPDEST JUMPDEST SWAP1 PUSH1 0x0 MSTORE PUSH1 0x20 PUSH1 0x0 KECCAK256 ADD PUSH1 0x0 SWAP1 SLOAD SWAP1 PUSH2 0x100 EXP SWAP1 DIV PUSH20 0xFFFFFFFFFFFFFFFFFFFFFFFFFFFFFFFFFFFFFFFF AND SWAP1 POP DUP1 PUSH1 0x1 PUSH1 0x0 PUSH2 0x100 EXP DUP2 SLOAD DUP2 PUSH20 0xFFFFFFFFFFFFFFFFFFFFFFFFFFFFFFFFFFFFFFFF MUL NOT AND SWAP1 DUP4 PUSH20 0xFFFFFFFFFFFFFFFFFFFFFFFFFFFFFFFFFFFFFFFF AND MUL OR SWAP1 SSTORE POP PUSH1 0x0 PUSH1 0x3 PUSH1 0x0 PUSH2 0x100 EXP DUP2 SLOAD DUP2 PUSH1 0xFF MUL NOT AND SWAP1 DUP4 PUSH1 0x1 DUP2 GT ISZERO PUSH2 0x76A JUMPI PUSH2 0x769 PUSH2 0xDB9 JUMP JUMPDEST JUMPDEST MUL OR SWAP1 SSTORE POP PUSH1 0x0 PUSH8 0xFFFFFFFFFFFFFFFF DUP2 GT ISZERO PUSH2 0x78A JUMPI PUSH2 0x789 PUSH2 0x9C3 JUMP JUMPDEST JUMPDEST PUSH1 0x40 MLOAD SWAP1 DUP1 DUP3 MSTORE DUP1 PUSH1 0x20 MUL PUSH1 0x20 ADD DUP3 ADD PUSH1 0x40 MSTORE DUP1 ISZERO PUSH2 0x7B8 JUMPI DUP2 PUSH1 0x20 ADD PUSH1 0x20 DUP3 MUL DUP1 CALLDATASIZE DUP4 CALLDATACOPY DUP1 DUP3 ADD SWAP2 POP POP SWAP1 POP JUMPDEST POP PUSH1 0x0 SWAP1 DUP1 MLOAD SWAP1 PUSH1 0x20 ADD SWAP1 PUSH2 0x7CE SWAP3 SWAP2 SWAP1 PUSH2 0x8BC JUMP JUMPDEST POP PUSH1 0x0 DUP2 PUSH20 0xFFFFFFFFFFFFFFFFFFFFFFFFFFFFFFFFFFFFFFFF AND SELFBALANCE PUSH1 0x40 MLOAD PUSH2 0x7F5 SWAP1 PUSH2 0x1018 JUMP JUMPDEST PUSH1 0x0 PUSH1 0x40 MLOAD DUP1 DUP4 SUB DUP2 DUP6 DUP8 GAS CALL SWAP3 POP POP POP RETURNDATASIZE DUP1 PUSH1 0x0 DUP2 EQ PUSH2 0x832 JUMPI PUSH1 0x40 MLOAD SWAP2 POP PUSH1 0x1F NOT PUSH1 0x3F RETURNDATASIZE ADD AND DUP3 ADD PUSH1 0x40 MSTORE RETURNDATASIZE DUP3 MSTORE RETURNDATASIZE PUSH1 0x0 PUSH1 0x20 DUP5 ADD RETURNDATACOPY PUSH2 0x837 JUMP JUMPDEST PUSH1 0x60 SWAP2 POP JUMPDEST POP POP SWAP1 POP DUP1 PUSH2 0x872 JUMPI PUSH1 0x40 MLOAD PUSH32 0x98ADBEB800000000000000000000000000000000000000000000000000000000 DUP2 MSTORE PUSH1 0x4 ADD PUSH1 0x40 MLOAD DUP1 SWAP2 SUB SWAP1 REVERT JUMPDEST DUP2 PUSH20 0xFFFFFFFFFFFFFFFFFFFFFFFFFFFFFFFFFFFFFFFF AND PUSH32 0x794919B0F484B8E90B1B817AC7F880F846FBD8A9813DEE2A378E820DB094E3D1 PUSH1 0x40 MLOAD PUSH1 0x40 MLOAD DUP1 SWAP2 SUB SWAP1 LOG2 POP POP POP POP POP JUMP JUMPDEST DUP3 DUP1 SLOAD DUP3 DUP3 SSTORE SWAP1 PUSH1 0x0 MSTORE PUSH1 0x20 PUSH1 0x0 KECCAK256 SWAP1 DUP2 ADD SWAP3 DUP3 ISZERO PUSH2 0x935 JUMPI SWAP2 PUSH1 0x20 MUL DUP3 ADD JUMPDEST DUP3 DUP2 GT ISZERO PUSH2 0x934 JUMPI DUP3 MLOAD DUP3 PUSH1 0x0 PUSH2 0x100 EXP DUP2 SLOAD DUP2 PUSH20 0xFFFFFFFFFFFFFFFFFFFFFFFFFFFFFFFFFFFFFFFF MUL NOT AND SWAP1 DUP4 PUSH20 0xFFFFFFFFFFFFFFFFFFFFFFFFFFFFFFFFFFFFFFFF AND MUL OR SWAP1 SSTORE POP SWAP2 PUSH1 0x20 ADD SWAP2 SWAP1 PUSH1 0x1 ADD SWAP1 PUSH2 0x8DC JUMP JUMPDEST JUMPDEST POP SWAP1 POP PUSH2 0x942 SWAP2 SWAP1 PUSH2 0x946 JUMP JUMPDEST POP SWAP1 JUMP JUMPDEST JUMPDEST DUP1 DUP3 GT ISZERO PUSH2 0x95F JUMPI PUSH1 0x0 DUP2 PUSH1 0x0 SWAP1 SSTORE POP PUSH1 0x1 ADD PUSH2 0x947 JUMP JUMPDEST POP SWAP1 JUMP JUMPDEST PUSH1 0x0 PUSH1 0x40 MLOAD SWAP1 POP SWAP1 JUMP JUMPDEST PUSH1 0x0 DUP1 REVERT JUMPDEST PUSH1 0x0 DUP1 REVERT JUMPDEST PUSH1 0x0 DUP2 SWAP1 POP SWAP2 SWAP1 POP JUMP JUMPDEST PUSH2 0x98A DUP2 PUSH2 0x977 JUMP JUMPDEST DUP2 EQ PUSH2 0x995 JUMPI PUSH1 0x0 DUP1 REVERT JUMPDEST POP JUMP JUMPDEST PUSH1 0x0 DUP2 CALLDATALOAD SWAP1 POP PUSH2 0x9A7 DUP2 PUSH2 0x981 JUMP JUMPDEST SWAP3 SWAP2 POP POP JUMP JUMPDEST PUSH1 0x0 DUP1 REVERT JUMPDEST PUSH1 0x0 PUSH1 0x1F NOT PUSH1 0x1F DUP4 ADD AND SWAP1 POP SWAP2 SWAP1 POP JUMP JUMPDEST PUSH32 0x4E487B7100000000000000000000000000000000000000000000000000000000 PUSH1 0x0 MSTORE PUSH1 0x41 PUSH1 0x4 MSTORE PUSH1 0x24 PUSH1 0x0 REVERT JUMPDEST PUSH2 0x9FB DUP3 PUSH2 0x9B2 JUMP JUMPDEST DUP2 ADD DUP2 DUP2 LT PUSH8 0xFFFFFFFFFFFFFFFF DUP3 GT OR ISZERO PUSH2 0xA1A JUMPI PUSH2 0xA19 PUSH2 0x9C3 JUMP JUMPDEST JUMPDEST DUP1 PUSH1 0x40 MSTORE POP POP POP JUMP JUMPDEST PUSH1 0x0 PUSH2 0xA2D PUSH2 0x963 JUMP JUMPDEST SWAP1 POP PUSH2 0xA39 DUP3 DUP3 PUSH2 0x9F2 JUMP JUMPDEST SWAP2 SWAP1 POP JUMP JUMPDEST PUSH1 0x0 PUSH8 0xFFFFFFFFFFFFFFFF DUP3 GT ISZERO PUSH2 0xA59 JUMPI PUSH2 0xA58 PUSH2 0x9C3 JUMP JUMPDEST JUMPDEST PUSH1 0x20 DUP3 MUL SWAP1 POP PUSH1 0x20 DUP2 ADD SWAP1 POP SWAP2 SWAP1 POP JUMP JUMPDEST PUSH1 0x0 DUP1 REVERT JUMPDEST PUSH1 0x0 PUSH2 0xA82 PUSH2 0xA7D DUP5 PUSH2 0xA3E JUMP JUMPDEST PUSH2 0xA23 JUMP JUMPDEST SWAP1 POP DUP1 DUP4 DUP3 MSTORE PUSH1 0x20 DUP3 ADD SWAP1 POP PUSH1 0x20 DUP5 MUL DUP4 ADD DUP6 DUP2 GT ISZERO PUSH2 0xAA5 JUMPI PUSH2 0xAA4 PUSH2 0xA6A JUMP JUMPDEST JUMPDEST DUP4 JUMPDEST DUP2 DUP2 LT ISZERO PUSH2 0xACE JUMPI DUP1 PUSH2 0xABA DUP9 DUP3 PUSH2 0x998 JUMP JUMPDEST DUP5 MSTORE PUSH1 0x20 DUP5 ADD SWAP4 POP POP PUSH1 0x20 DUP2 ADD SWAP1 POP PUSH2 0xAA7 JUMP JUMPDEST POP POP POP SWAP4 SWAP3 POP POP POP JUMP JUMPDEST PUSH1 0x0 DUP3 PUSH1 0x1F DUP4 ADD SLT PUSH2 0xAED JUMPI PUSH2 0xAEC PUSH2 0x9AD JUMP JUMPDEST JUMPDEST DUP2 CALLDATALOAD PUSH2 0xAFD DUP5 DUP3 PUSH1 0x20 DUP7 ADD PUSH2 0xA6F JUMP JUMPDEST SWAP2 POP POP SWAP3 SWAP2 POP POP JUMP JUMPDEST PUSH1 0x0 DUP1 PUSH1 0x40 DUP4 DUP6 SUB SLT ISZERO PUSH2 0xB1D JUMPI PUSH2 0xB1C PUSH2 0x96D JUMP JUMPDEST JUMPDEST PUSH1 0x0 PUSH2 0xB2B DUP6 DUP3 DUP7 ADD PUSH2 0x998 JUMP JUMPDEST SWAP3 POP POP PUSH1 0x20 DUP4 ADD CALLDATALOAD PUSH8 0xFFFFFFFFFFFFFFFF DUP2 GT ISZERO PUSH2 0xB4C JUMPI PUSH2 0xB4B PUSH2 0x972 JUMP JUMPDEST JUMPDEST PUSH2 0xB58 DUP6 DUP3 DUP7 ADD PUSH2 0xAD8 JUMP JUMPDEST SWAP2 POP POP SWAP3 POP SWAP3 SWAP1 POP JUMP JUMPDEST PUSH1 0x0 DUP1 REVERT JUMPDEST PUSH1 0x0 DUP1 DUP4 PUSH1 0x1F DUP5 ADD SLT PUSH2 0xB7D JUMPI PUSH2 0xB7C PUSH2 0x9AD JUMP JUMPDEST JUMPDEST DUP3 CALLDATALOAD SWAP1 POP PUSH8 0xFFFFFFFFFFFFFFFF DUP2 GT ISZERO PUSH2 0xB9A JUMPI PUSH2 0xB99 PUSH2 0xB62 JUMP JUMPDEST JUMPDEST PUSH1 0x20 DUP4 ADD SWAP2 POP DUP4 PUSH1 0x1 DUP3 MUL DUP4 ADD GT ISZERO PUSH2 0xBB6 JUMPI PUSH2 0xBB5 PUSH2 0xA6A JUMP JUMPDEST JUMPDEST SWAP3 POP SWAP3 SWAP1 POP JUMP JUMPDEST PUSH1 0x0 DUP1 PUSH1 0x20 DUP4 DUP6 SUB SLT ISZERO PUSH2 0xBD4 JUMPI PUSH2 0xBD3 PUSH2 0x96D JUMP JUMPDEST JUMPDEST PUSH1 0x0 DUP4 ADD CALLDATALOAD PUSH8 0xFFFFFFFFFFFFFFFF DUP2 GT ISZERO PUSH2 0xBF2 JUMPI PUSH2 0xBF1 PUSH2 0x972 JUMP JUMPDEST JUMPDEST PUSH2 0xBFE DUP6 DUP3 DUP7 ADD PUSH2 0xB67 JUMP JUMPDEST SWAP3 POP SWAP3 POP POP SWAP3 POP SWAP3 SWAP1 POP JUMP JUMPDEST PUSH1 0x0 PUSH1 0x20 DUP3 DUP5 SUB SLT ISZERO PUSH2 0xC20 JUMPI PUSH2 0xC1F PUSH2 0x96D JUMP JUMPDEST JUMPDEST PUSH1 0x0 PUSH2 0xC2E DUP5 DUP3 DUP6 ADD PUSH2 0x998 JUMP JUMPDEST SWAP2 POP POP SWAP3 SWAP2 POP POP JUMP JUMPDEST PUSH1 0x0 PUSH20 0xFFFFFFFFFFFFFFFFFFFFFFFFFFFFFFFFFFFFFFFF DUP3 AND SWAP1 POP SWAP2 SWAP1 POP JUMP JUMPDEST PUSH1 0x0 PUSH2 0xC62 DUP3 PUSH2 0xC37 JUMP JUMPDEST SWAP1 POP SWAP2 SWAP1 POP JUMP JUMPDEST PUSH2 0xC72 DUP2 PUSH2 0xC57 JUMP JUMPDEST DUP3 MSTORE POP POP JUMP JUMPDEST PUSH1 0x0 PUSH1 0x20 DUP3 ADD SWAP1 POP PUSH2 0xC8D PUSH1 0x0 DUP4 ADD DUP5 PUSH2 0xC69 JUMP JUMPDEST SWAP3 SWAP2 POP POP JUMP JUMPDEST PUSH1 0x0 DUP2 ISZERO ISZERO SWAP1 POP SWAP2 SWAP1 POP JUMP JUMPDEST PUSH2 0xCA8 DUP2 PUSH2 0xC93 JUMP JUMPDEST DUP3 MSTORE POP POP JUMP JUMPDEST PUSH1 0x0 DUP2 MLOAD SWAP1 POP SWAP2 SWAP1 POP JUMP JUMPDEST PUSH1 0x0 DUP3 DUP3 MSTORE PUSH1 0x20 DUP3 ADD SWAP1 POP SWAP3 SWAP2 POP POP JUMP JUMPDEST PUSH1 0x0 JUMPDEST DUP4 DUP2 LT ISZERO PUSH2 0xCE8 JUMPI DUP1 DUP3 ADD MLOAD DUP2 DUP5 ADD MSTORE PUSH1 0x20 DUP2 ADD SWAP1 POP PUSH2 0xCCD JUMP JUMPDEST DUP4 DUP2 GT ISZERO PUSH2 0xCF7 JUMPI PUSH1 0x0 DUP5 DUP5 ADD MSTORE JUMPDEST POP POP POP POP JUMP JUMPDEST PUSH1 0x0 PUSH2 0xD08 DUP3 PUSH2 0xCAE JUMP JUMPDEST PUSH2 0xD12 DUP2 DUP6 PUSH2 0xCB9 JUMP JUMPDEST SWAP4 POP PUSH2 0xD22 DUP2 DUP6 PUSH1 0x20 DUP7 ADD PUSH2 0xCCA JUMP JUMPDEST PUSH2 0xD2B DUP2 PUSH2 0x9B2 JUMP JUMPDEST DUP5 ADD SWAP2 POP POP SWAP3 SWAP2 POP POP JUMP JUMPDEST PUSH1 0x0 PUSH1 0x40 DUP3 ADD SWAP1 POP PUSH2 0xD4B PUSH1 0x0 DUP4 ADD DUP6 PUSH2 0xC9F JUMP JUMPDEST DUP2 DUP2 SUB PUSH1 0x20 DUP4 ADD MSTORE PUSH2 0xD5D DUP2 DUP5 PUSH2 0xCFD JUMP JUMPDEST SWAP1 POP SWAP4 SWAP3 POP POP POP JUMP JUMPDEST PUSH2 0xD6F DUP2 PUSH2 0x977 JUMP JUMPDEST DUP3 MSTORE POP POP JUMP JUMPDEST PUSH1 0x0 PUSH1 0x20 DUP3 ADD SWAP1 POP PUSH2 0xD8A PUSH1 0x0 DUP4 ADD DUP5 PUSH2 0xD66 JUMP JUMPDEST SWAP3 SWAP2 POP POP JUMP JUMPDEST PUSH1 0x0 PUSH1 0x40 DUP3 ADD SWAP1 POP PUSH2 0xDA5 PUSH1 0x0 DUP4 ADD DUP6 PUSH2 0xC69 JUMP JUMPDEST PUSH2 0xDB2 PUSH1 0x20 DUP4 ADD DUP5 PUSH2 0xC69 JUMP JUMPDEST SWAP4 SWAP3 POP POP POP JUMP JUMPDEST PUSH32 0x4E487B7100000000000000000000000000000000000000000000000000000000 PUSH1 0x0 MSTORE PUSH1 0x21 PUSH1 0x4 MSTORE PUSH1 0x24 PUSH1 0x0 REVERT JUMPDEST PUSH1 0x0 DUP2 SWAP1 POP SWAP2 SWAP1 POP JUMP JUMPDEST PUSH2 0xDFB DUP2 PUSH2 0xDE8 JUMP JUMPDEST DUP3 MSTORE POP POP JUMP JUMPDEST PUSH1 0x0 PUSH8 0xFFFFFFFFFFFFFFFF DUP3 AND SWAP1 POP SWAP2 SWAP1 POP JUMP JUMPDEST PUSH2 0xE1E DUP2 PUSH2 0xE01 JUMP JUMPDEST DUP3 MSTORE POP POP JUMP JUMPDEST PUSH1 0x0 PUSH2 0xFFFF DUP3 AND SWAP1 POP SWAP2 SWAP1 POP JUMP JUMPDEST PUSH2 0xE3B DUP2 PUSH2 0xE24 JUMP JUMPDEST DUP3 MSTORE POP POP JUMP JUMPDEST PUSH1 0x0 PUSH4 0xFFFFFFFF DUP3 AND SWAP1 POP SWAP2 SWAP1 POP JUMP JUMPDEST PUSH2 0xE5A DUP2 PUSH2 0xE41 JUMP JUMPDEST DUP3 MSTORE POP POP JUMP JUMPDEST PUSH1 0x0 PUSH1 0xA0 DUP3 ADD SWAP1 POP PUSH2 0xE75 PUSH1 0x0 DUP4 ADD DUP9 PUSH2 0xDF2 JUMP JUMPDEST PUSH2 0xE82 PUSH1 0x20 DUP4 ADD DUP8 PUSH2 0xE15 JUMP JUMPDEST PUSH2 0xE8F PUSH1 0x40 DUP4 ADD DUP7 PUSH2 0xE32 JUMP JUMPDEST PUSH2 0xE9C PUSH1 0x60 DUP4 ADD DUP6 PUSH2 0xE51 JUMP JUMPDEST PUSH2 0xEA9 PUSH1 0x80 DUP4 ADD DUP5 PUSH2 0xE51 JUMP JUMPDEST SWAP7 SWAP6 POP POP POP POP POP POP JUMP JUMPDEST PUSH1 0x0 DUP2 MLOAD SWAP1 POP PUSH2 0xEC2 DUP2 PUSH2 0x981 JUMP JUMPDEST SWAP3 SWAP2 POP POP JUMP JUMPDEST PUSH1 0x0 PUSH1 0x20 DUP3 DUP5 SUB SLT ISZERO PUSH2 0xEDE JUMPI PUSH2 0xEDD PUSH2 0x96D JUMP JUMPDEST JUMPDEST PUSH1 0x0 PUSH2 0xEEC DUP5 DUP3 DUP6 ADD PUSH2 0xEB3 JUMP JUMPDEST SWAP2 POP POP SWAP3 SWAP2 POP POP JUMP JUMPDEST PUSH32 0x4E487B7100000000000000000000000000000000000000000000000000000000 PUSH1 0x0 MSTORE PUSH1 0x32 PUSH1 0x4 MSTORE PUSH1 0x24 PUSH1 0x0 REVERT JUMPDEST PUSH32 0x4E487B7100000000000000000000000000000000000000000000000000000000 PUSH1 0x0 MSTORE PUSH1 0x11 PUSH1 0x4 MSTORE PUSH1 0x24 PUSH1 0x0 REVERT JUMPDEST PUSH1 0x0 PUSH2 0xF5E DUP3 PUSH2 0x977 JUMP JUMPDEST SWAP2 POP PUSH2 0xF69 DUP4 PUSH2 0x977 JUMP JUMPDEST SWAP3 POP DUP3 DUP3 LT ISZERO PUSH2 0xF7C JUMPI PUSH2 0xF7B PUSH2 0xF24 JUMP JUMPDEST JUMPDEST DUP3 DUP3 SUB SWAP1 POP SWAP3 SWAP2 POP POP JUMP JUMPDEST PUSH32 0x4E487B7100000000000000000000000000000000000000000000000000000000 PUSH1 0x0 MSTORE PUSH1 0x12 PUSH1 0x4 MSTORE PUSH1 0x24 PUSH1 0x0 REVERT JUMPDEST PUSH1 0x0 PUSH2 0xFC1 DUP3 PUSH2 0x977 JUMP JUMPDEST SWAP2 POP PUSH2 0xFCC DUP4 PUSH2 0x977 JUMP JUMPDEST SWAP3 POP DUP3 PUSH2 0xFDC JUMPI PUSH2 0xFDB PUSH2 0xF87 JUMP JUMPDEST JUMPDEST DUP3 DUP3 MOD SWAP1 POP SWAP3 SWAP2 POP POP JUMP JUMPDEST PUSH1 0x0 DUP2 SWAP1 POP SWAP3 SWAP2 POP POP JUMP JUMPDEST POP JUMP JUMPDEST PUSH1 0x0 PUSH2 0x1002 PUSH1 0x0 DUP4 PUSH2 0xFE7 JUMP JUMPDEST SWAP2 POP PUSH2 0x100D DUP3 PUSH2 0xFF2 JUMP JUMPDEST PUSH1 0x0 DUP3 ADD SWAP1 POP SWAP2 SWAP1 POP JUMP JUMPDEST PUSH1 0x0 PUSH2 0x1023 DUP3 PUSH2 0xFF5 JUMP JUMPDEST SWAP2 POP DUP2 SWAP1 POP SWAP2 SWAP1 POP JUMP INVALID LOG2 PUSH5 0x6970667358 0x22 SLT KECCAK256 DUP11 0x4C 0xEC MSTORE8 DUP13 0x4E MSTORE8 PUSH10 0x3AEC75F0E11B04360061 ORIGIN PUSH28 0x93A655C49740F93920A0407764736F6C634300080800330000000000 "
        },
        "gasEstimates": {
          "creation": {
            "codeDepositCost": "839000",
            "executionCost": "infinite",
            "totalCost": "infinite"
          },
          "external": {
            "checkUpkeep(bytes)": "infinite",
            "enterLottery()": "infinite",
            "getEntryFee()": "infinite",
            "getPlayers(uint256)": "5012",
            "getRecentWinner()": "2522",
            "performUpkeep(bytes)": "infinite",
            "rawFulfillRandomWords(uint256,uint256[])": "infinite"
          },
          "internal": {
            "fulfillRandomWords(uint256,uint256[] memory)": "infinite"
          }
        },
        "methodIdentifiers": {
          "checkUpkeep(bytes)": "6e04ff0d",
          "enterLottery()": "c1af5785",
          "getEntryFee()": "e586a4f0",
          "getPlayers(uint256)": "460e2049",
          "getRecentWinner()": "473f1ddc",
          "performUpkeep(bytes)": "4585e33b",
          "rawFulfillRandomWords(uint256,uint256[])": "1fe543e3"
        }
      },
      "storageLayout": {
        "storage": [
          {
            "astId": 228,
            "contract": "contracts/Lottery.sol:Lottery",
            "label": "s_players",
            "offset": 0,
            "slot": "0",
            "type": "t_array(t_address_payable)dyn_storage"
          },
          {
            "astId": 245,
            "contract": "contracts/Lottery.sol:Lottery",
            "label": "s_recentWinner",
            "offset": 0,
            "slot": "1",
            "type": "t_address"
          },
          {
            "astId": 247,
            "contract": "contracts/Lottery.sol:Lottery",
            "label": "s_lastTimeStamp",
            "offset": 0,
            "slot": "2",
            "type": "t_uint256"
          },
          {
            "astId": 252,
            "contract": "contracts/Lottery.sol:Lottery",
            "label": "s_raffleState",
            "offset": 0,
            "slot": "3",
            "type": "t_enum(RaffleState)222"
          }
        ],
        "types": {
          "t_address": {
            "encoding": "inplace",
            "label": "address",
            "numberOfBytes": "20"
          },
          "t_address_payable": {
            "encoding": "inplace",
            "label": "address payable",
            "numberOfBytes": "20"
          },
          "t_array(t_address_payable)dyn_storage": {
            "base": "t_address_payable",
            "encoding": "dynamic_array",
            "label": "address payable[]",
            "numberOfBytes": "32"
          },
          "t_enum(RaffleState)222": {
            "encoding": "inplace",
            "label": "enum Lottery.RaffleState",
            "numberOfBytes": "1"
          },
          "t_uint256": {
            "encoding": "inplace",
            "label": "uint256",
            "numberOfBytes": "32"
          }
        }
      },
      "userdoc": {
        "kind": "user",
        "methods": {},
        "version": 1
      }
    }
  }
}