{
  "_format": "hh-sol-artifact-1",
  "contractName": "Lottery",
  "sourceName": "contracts/Lottery.sol",
  "abi": [
    {
      "inputs": [
        {
          "internalType": "address",
          "name": "vrfCoordinatorV2",
          "type": "address"
        },
        {
          "internalType": "uint256",
          "name": "entryFee",
          "type": "uint256"
        },
        {
          "internalType": "bytes32",
          "name": "keyHash",
          "type": "bytes32"
        },
        {
          "internalType": "uint64",
          "name": "subscriptionID",
          "type": "uint64"
        },
        {
          "internalType": "uint32",
          "name": "callbackGasLimit",
          "type": "uint32"
        },
        {
          "internalType": "uint256",
          "name": "interval",
          "type": "uint256"
        }
      ],
      "stateMutability": "nonpayable",
      "type": "constructor"
    },
    {
      "inputs": [],
      "name": "Lottery_NotEnoughEthEntered",
      "type": "error"
    },
    {
      "inputs": [],
      "name": "Lottery_TransferedFailed",
      "type": "error"
    },
    {
      "inputs": [
        {
          "internalType": "address",
          "name": "have",
          "type": "address"
        },
        {
          "internalType": "address",
          "name": "want",
          "type": "address"
        }
      ],
      "name": "OnlyCoordinatorCanFulfill",
      "type": "error"
    },
    {
      "inputs": [],
      "name": "Raffle__NotOpen",
      "type": "error"
    },
    {
      "inputs": [
        {
          "internalType": "uint256",
          "name": "currentBalance",
          "type": "uint256"
        },
        {
          "internalType": "uint256",
          "name": "numPlayers",
          "type": "uint256"
        },
        {
          "internalType": "uint256",
          "name": "raffleState",
          "type": "uint256"
        }
      ],
      "name": "Raffle__UPkeepNotNeeded",
      "type": "error"
    },
    {
      "anonymous": false,
      "inputs": [
        {
          "indexed": true,
          "internalType": "address",
          "name": "player",
          "type": "address"
        }
      ],
      "name": "lotteryEnter",
      "type": "event"
    },
    {
      "anonymous": false,
      "inputs": [
        {
          "indexed": true,
          "internalType": "uint256",
          "name": "requestId",
          "type": "uint256"
        }
      ],
      "name": "requestRandomWinner",
      "type": "event"
    },
    {
      "anonymous": false,
      "inputs": [
        {
          "indexed": true,
          "internalType": "address",
          "name": "winner",
          "type": "address"
        }
      ],
      "name": "winnerPicked",
      "type": "event"
    },
    {
      "inputs": [
        {
          "internalType": "bytes",
          "name": "",
          "type": "bytes"
        }
      ],
      "name": "checkUpkeep",
      "outputs": [
        {
          "internalType": "bool",
          "name": "upkeepNeeded",
          "type": "bool"
        },
        {
          "internalType": "bytes",
          "name": "",
          "type": "bytes"
        }
      ],
      "stateMutability": "nonpayable",
      "type": "function"
    },
    {
      "inputs": [],
      "name": "enterLottery",
      "outputs": [],
      "stateMutability": "payable",
      "type": "function"
    },
    {
      "inputs": [],
      "name": "getEntryFee",
      "outputs": [
        {
          "internalType": "uint256",
          "name": "",
          "type": "uint256"
        }
      ],
      "stateMutability": "view",
      "type": "function"
    },
    {
      "inputs": [],
      "name": "getInterval",
      "outputs": [
        {
          "internalType": "uint256",
          "name": "",
          "type": "uint256"
        }
      ],
      "stateMutability": "view",
      "type": "function"
    },
    {
      "inputs": [],
      "name": "getLatestTimeStamp",
      "outputs": [
        {
          "internalType": "uint256",
          "name": "",
          "type": "uint256"
        }
      ],
      "stateMutability": "view",
      "type": "function"
    },
    {
      "inputs": [],
      "name": "getLotteryState",
      "outputs": [
        {
          "internalType": "enum Lottery.RaffleState",
          "name": "",
          "type": "uint8"
        }
      ],
      "stateMutability": "view",
      "type": "function"
    },
    {
      "inputs": [],
      "name": "getNumPlayers",
      "outputs": [
        {
          "internalType": "uint256",
          "name": "",
          "type": "uint256"
        }
      ],
      "stateMutability": "view",
      "type": "function"
    },
    {
      "inputs": [],
      "name": "getNumWords",
      "outputs": [
        {
          "internalType": "uint256",
          "name": "",
          "type": "uint256"
        }
      ],
      "stateMutability": "pure",
      "type": "function"
    },
    {
      "inputs": [
        {
          "internalType": "uint256",
          "name": "index",
          "type": "uint256"
        }
      ],
      "name": "getPlayers",
      "outputs": [
        {
          "internalType": "address",
          "name": "",
          "type": "address"
        }
      ],
      "stateMutability": "view",
      "type": "function"
    },
    {
      "inputs": [],
      "name": "getRecentWinner",
      "outputs": [
        {
          "internalType": "address",
          "name": "",
          "type": "address"
        }
      ],
      "stateMutability": "view",
      "type": "function"
    },
    {
      "inputs": [],
      "name": "getRequestConfirmations",
      "outputs": [
        {
          "internalType": "uint256",
          "name": "",
          "type": "uint256"
        }
      ],
      "stateMutability": "pure",
      "type": "function"
    },
    {
      "inputs": [
        {
          "internalType": "bytes",
          "name": "",
          "type": "bytes"
        }
      ],
      "name": "performUpkeep",
      "outputs": [],
      "stateMutability": "nonpayable",
      "type": "function"
    },
    {
      "inputs": [
        {
          "internalType": "uint256",
          "name": "requestId",
          "type": "uint256"
        },
        {
          "internalType": "uint256[]",
          "name": "randomWords",
          "type": "uint256[]"
        }
      ],
      "name": "rawFulfillRandomWords",
      "outputs": [],
      "stateMutability": "nonpayable",
      "type": "function"
    }
  ],
  "bytecode": "0x6101606040523480156200001257600080fd5b5060405162001871380380620018718339818101604052810190620000389190620002a0565b858073ffffffffffffffffffffffffffffffffffffffff1660808173ffffffffffffffffffffffffffffffffffffffff1660601b81525050508460a081815250508573ffffffffffffffffffffffffffffffffffffffff1660c08173ffffffffffffffffffffffffffffffffffffffff1660601b815250508360e081815250508267ffffffffffffffff166101008167ffffffffffffffff1660c01b815250508163ffffffff166101208163ffffffff1660e01b815250506000600360006101000a81548160ff021916908360018111156200011957620001186200033c565b5b0217905550426002819055508061014081815250505050505050506200036b565b600080fd5b600073ffffffffffffffffffffffffffffffffffffffff82169050919050565b60006200016c826200013f565b9050919050565b6200017e816200015f565b81146200018a57600080fd5b50565b6000815190506200019e8162000173565b92915050565b6000819050919050565b620001b981620001a4565b8114620001c557600080fd5b50565b600081519050620001d981620001ae565b92915050565b6000819050919050565b620001f481620001df565b81146200020057600080fd5b50565b6000815190506200021481620001e9565b92915050565b600067ffffffffffffffff82169050919050565b62000239816200021a565b81146200024557600080fd5b50565b60008151905062000259816200022e565b92915050565b600063ffffffff82169050919050565b6200027a816200025f565b81146200028657600080fd5b50565b6000815190506200029a816200026f565b92915050565b60008060008060008060c08789031215620002c057620002bf6200013a565b5b6000620002d089828a016200018d565b9650506020620002e389828a01620001c8565b9550506040620002f689828a0162000203565b94505060606200030989828a0162000248565b93505060806200031c89828a0162000289565b92505060a06200032f89828a01620001c8565b9150509295509295509295565b7f4e487b7100000000000000000000000000000000000000000000000000000000600052602160045260246000fd5b60805160601c60a05160c05160601c60e0516101005160c01c6101205160e01c6101405161148a620003e7600039600081816106b3015261075f015260006104f8015260006104d5015260006104b40152600061047801526000818161078501526108f60152600081816102f8015261034c015261148a6000f3fe6080604052600436106100c25760003560e01c806355c9e9261161007f5780636e04ff0d116100595780636e04ff0d1461025857806391ad27b414610296578063c1af5785146102c1578063e586a4f0146102cb576100c2565b806355c9e926146101d75780635f1b0fd8146102025780636b68c03c1461022d576100c2565b80631fe543e3146100c7578063320229eb146100f05780634585e33b1461011b578063460e204914610144578063473f1ddc1461018157806353a2c19a146101ac575b600080fd5b3480156100d357600080fd5b506100ee60048036038101906100e99190610d95565b6102f6565b005b3480156100fc57600080fd5b506101056103b6565b6040516101129190610e00565b60405180910390f35b34801561012757600080fd5b50610142600480360381019061013d9190610e76565b6103c0565b005b34801561015057600080fd5b5061016b60048036038101906101669190610ec3565b6105c0565b6040516101789190610f31565b60405180910390f35b34801561018d57600080fd5b50610196610607565b6040516101a39190610f31565b60405180910390f35b3480156101b857600080fd5b506101c1610631565b6040516101ce9190610e00565b60405180910390f35b3480156101e357600080fd5b506101ec610640565b6040516101f99190610e00565b60405180910390f35b34801561020e57600080fd5b5061021761064c565b6040516102249190610e00565b60405180910390f35b34801561023957600080fd5b50610242610659565b60405161024f9190610fc3565b60405180910390f35b34801561026457600080fd5b5061027f600480360381019061027a9190611093565b610670565b60405161028d92919061117f565b60405180910390f35b3480156102a257600080fd5b506102ab61075b565b6040516102b89190610e00565b60405180910390f35b6102c9610783565b005b3480156102d757600080fd5b506102e06108f2565b6040516102ed9190610e00565b60405180910390f35b7f000000000000000000000000000000000000000000000000000000000000000073ffffffffffffffffffffffffffffffffffffffff163373ffffffffffffffffffffffffffffffffffffffff16146103a857337f00000000000000000000000000000000000000000000000000000000000000006040517f1cf993f400000000000000000000000000000000000000000000000000000000815260040161039f9291906111af565b60405180910390fd5b6103b2828261091a565b5050565b6000600254905090565b60006103da60405180602001604052806000815250610670565b509050806104495747600080549050600360009054906101000a900460ff16600181111561040b5761040a610f4c565b5b6040517f900a90ba000000000000000000000000000000000000000000000000000000008152600401610440939291906111d8565b60405180910390fd5b6001600360006101000a81548160ff0219169083600181111561046f5761046e610f4c565b5b021790555060007f000000000000000000000000000000000000000000000000000000000000000073ffffffffffffffffffffffffffffffffffffffff16635d3b1d307f00000000000000000000000000000000000000000000000000000000000000007f000000000000000000000000000000000000000000000000000000000000000060037f000000000000000000000000000000000000000000000000000000000000000060016040518663ffffffff1660e01b8152600401610539959493929190611287565b602060405180830381600087803b15801561055357600080fd5b505af1158015610567573d6000803e3d6000fd5b505050506040513d601f19601f8201168201806040525081019061058b91906112ef565b9050807f5e42a34530a308d44a84f0c245afbe71f18da82562b8d6ce22888f2ba8d3a28e60405160405180910390a250505050565b60008082815481106105d5576105d461131c565b5b9060005260206000200160009054906101000a900473ffffffffffffffffffffffffffffffffffffffff169050919050565b6000600160009054906101000a900473ffffffffffffffffffffffffffffffffffffffff16905090565b6000600163ffffffff16905090565b60008080549050905090565b6000600361ffff16905090565b6000600360009054906101000a900460ff16905090565b600060606000600360009054906101000a900460ff16600181111561069857610697610f4c565b5b600060018111156106ac576106ab610f4c565b5b14905060007f0000000000000000000000000000000000000000000000000000000000000000600254426106e0919061137a565b1190506000806000805490501190506000804711905060008480156107025750835b801561070b5750825b80156107145750815b9050806040518060400160405280600381526020017f3078300000000000000000000000000000000000000000000000000000000000815250965096505050505050915091565b60007f0000000000000000000000000000000000000000000000000000000000000000905090565b7f00000000000000000000000000000000000000000000000000000000000000003410156107dd576040517f1044bcb000000000000000000000000000000000000000000000000000000000815260040160405180910390fd5b600060018111156107f1576107f0610f4c565b5b600360009054906101000a900460ff16600181111561081357610812610f4c565b5b1461084a576040517f1425571c00000000000000000000000000000000000000000000000000000000815260040160405180910390fd5b6000339080600181540180825580915050600190039060005260206000200160009091909190916101000a81548173ffffffffffffffffffffffffffffffffffffffff021916908373ffffffffffffffffffffffffffffffffffffffff1602179055503373ffffffffffffffffffffffffffffffffffffffff167f6ba87006f2c53f2d227d45b3400034f16dbf4f6842816c4880d30170f3a6a16060405160405180910390a2565b60007f0000000000000000000000000000000000000000000000000000000000000000905090565b60008080549050826000815181106109355761093461131c565b5b602002602001015161094791906113dd565b9050600080828154811061095e5761095d61131c565b5b9060005260206000200160009054906101000a900473ffffffffffffffffffffffffffffffffffffffff16905080600160006101000a81548173ffffffffffffffffffffffffffffffffffffffff021916908373ffffffffffffffffffffffffffffffffffffffff1602179055506000600360006101000a81548160ff021916908360018111156109f2576109f1610f4c565b5b0217905550600067ffffffffffffffff811115610a1257610a11610c52565b5b604051908082528060200260200182016040528015610a405781602001602082028036833780820191505090505b5060009080519060200190610a56929190610b4b565b504260028190555060008173ffffffffffffffffffffffffffffffffffffffff1647604051610a849061143f565b60006040518083038185875af1925050503d8060008114610ac1576040519150601f19603f3d011682016040523d82523d6000602084013e610ac6565b606091505b5050905080610b01576040517f98adbeb800000000000000000000000000000000000000000000000000000000815260040160405180910390fd5b8173ffffffffffffffffffffffffffffffffffffffff167f794919b0f484b8e90b1b817ac7f880f846fbd8a9813dee2a378e820db094e3d160405160405180910390a25050505050565b828054828255906000526020600020908101928215610bc4579160200282015b82811115610bc35782518260006101000a81548173ffffffffffffffffffffffffffffffffffffffff021916908373ffffffffffffffffffffffffffffffffffffffff16021790555091602001919060010190610b6b565b5b509050610bd19190610bd5565b5090565b5b80821115610bee576000816000905550600101610bd6565b5090565b6000604051905090565b600080fd5b600080fd5b6000819050919050565b610c1981610c06565b8114610c2457600080fd5b50565b600081359050610c3681610c10565b92915050565b600080fd5b6000601f19601f8301169050919050565b7f4e487b7100000000000000000000000000000000000000000000000000000000600052604160045260246000fd5b610c8a82610c41565b810181811067ffffffffffffffff82111715610ca957610ca8610c52565b5b80604052505050565b6000610cbc610bf2565b9050610cc88282610c81565b919050565b600067ffffffffffffffff821115610ce857610ce7610c52565b5b602082029050602081019050919050565b600080fd5b6000610d11610d0c84610ccd565b610cb2565b90508083825260208201905060208402830185811115610d3457610d33610cf9565b5b835b81811015610d5d5780610d498882610c27565b845260208401935050602081019050610d36565b5050509392505050565b600082601f830112610d7c57610d7b610c3c565b5b8135610d8c848260208601610cfe565b91505092915050565b60008060408385031215610dac57610dab610bfc565b5b6000610dba85828601610c27565b925050602083013567ffffffffffffffff811115610ddb57610dda610c01565b5b610de785828601610d67565b9150509250929050565b610dfa81610c06565b82525050565b6000602082019050610e156000830184610df1565b92915050565b600080fd5b60008083601f840112610e3657610e35610c3c565b5b8235905067ffffffffffffffff811115610e5357610e52610e1b565b5b602083019150836001820283011115610e6f57610e6e610cf9565b5b9250929050565b60008060208385031215610e8d57610e8c610bfc565b5b600083013567ffffffffffffffff811115610eab57610eaa610c01565b5b610eb785828601610e20565b92509250509250929050565b600060208284031215610ed957610ed8610bfc565b5b6000610ee784828501610c27565b91505092915050565b600073ffffffffffffffffffffffffffffffffffffffff82169050919050565b6000610f1b82610ef0565b9050919050565b610f2b81610f10565b82525050565b6000602082019050610f466000830184610f22565b92915050565b7f4e487b7100000000000000000000000000000000000000000000000000000000600052602160045260246000fd5b60028110610f8c57610f8b610f4c565b5b50565b6000819050610f9d82610f7b565b919050565b6000610fad82610f8f565b9050919050565b610fbd81610fa2565b82525050565b6000602082019050610fd86000830184610fb4565b92915050565b600080fd5b600067ffffffffffffffff821115610ffe57610ffd610c52565b5b61100782610c41565b9050602081019050919050565b82818337600083830152505050565b600061103661103184610fe3565b610cb2565b90508281526020810184848401111561105257611051610fde565b5b61105d848285611014565b509392505050565b600082601f83011261107a57611079610c3c565b5b813561108a848260208601611023565b91505092915050565b6000602082840312156110a9576110a8610bfc565b5b600082013567ffffffffffffffff8111156110c7576110c6610c01565b5b6110d384828501611065565b91505092915050565b60008115159050919050565b6110f1816110dc565b82525050565b600081519050919050565b600082825260208201905092915050565b60005b83811015611131578082015181840152602081019050611116565b83811115611140576000848401525b50505050565b6000611151826110f7565b61115b8185611102565b935061116b818560208601611113565b61117481610c41565b840191505092915050565b600060408201905061119460008301856110e8565b81810360208301526111a68184611146565b90509392505050565b60006040820190506111c46000830185610f22565b6111d16020830184610f22565b9392505050565b60006060820190506111ed6000830186610df1565b6111fa6020830185610df1565b6112076040830184610df1565b949350505050565b6000819050919050565b6112228161120f565b82525050565b600067ffffffffffffffff82169050919050565b61124581611228565b82525050565b600061ffff82169050919050565b6112628161124b565b82525050565b600063ffffffff82169050919050565b61128181611268565b82525050565b600060a08201905061129c6000830188611219565b6112a9602083018761123c565b6112b66040830186611259565b6112c36060830185611278565b6112d06080830184611278565b9695505050505050565b6000815190506112e981610c10565b92915050565b60006020828403121561130557611304610bfc565b5b6000611313848285016112da565b91505092915050565b7f4e487b7100000000000000000000000000000000000000000000000000000000600052603260045260246000fd5b7f4e487b7100000000000000000000000000000000000000000000000000000000600052601160045260246000fd5b600061138582610c06565b915061139083610c06565b9250828210156113a3576113a261134b565b5b828203905092915050565b7f4e487b7100000000000000000000000000000000000000000000000000000000600052601260045260246000fd5b60006113e882610c06565b91506113f383610c06565b925082611403576114026113ae565b5b828206905092915050565b600081905092915050565b50565b600061142960008361140e565b915061143482611419565b600082019050919050565b600061144a8261141c565b915081905091905056fea2646970667358221220aa156c31f6e8588aa4c467ac3910ae4bd5e50684ef78c9a79ede541fe806490e64736f6c63430008080033",
  "linkReferences": {},
  "deployedLinkReferences": {}
}